{
  "contractName": "Tester",
  "abi": [
    {
      "constant": true,
      "inputs": [
        {
          "name": "",
          "type": "address"
        }
      ],
      "name": "e",
      "outputs": [
        {
          "name": "",
          "type": "uint256"
        }
      ],
      "payable": false,
      "stateMutability": "view",
      "type": "function"
    },
    {
      "inputs": [],
      "payable": false,
      "stateMutability": "nonpayable",
      "type": "constructor"
    },
    {
      "payable": false,
      "stateMutability": "nonpayable",
      "type": "fallback"
    },
    {
      "constant": false,
      "inputs": [
        {
          "name": "val",
          "type": "uint256"
        }
      ],
      "name": "setNewValue",
      "outputs": [],
      "payable": false,
      "stateMutability": "nonpayable",
      "type": "function"
    }
  ],
  "bytecode": "0x608060405234801561001057600080fd5b5061271060008073cfba9d7f3d4f9841ce9796117945559f0b4b586873ffffffffffffffffffffffffffffffffffffffff1673ffffffffffffffffffffffffffffffffffffffff168152602001908152602001600020819055506101b4806100796000396000f3fe608060405234801561001057600080fd5b50600436106100365760003560e01c80632391951214610090578063951c4077146100e8575b600080600073cfba9d7f3d4f9841ce9796117945559f0b4b586873ffffffffffffffffffffffffffffffffffffffff1673ffffffffffffffffffffffffffffffffffffffff16815260200190815260200160002081905550005b6100d2600480360360208110156100a657600080fd5b81019080803573ffffffffffffffffffffffffffffffffffffffff169060200190929190505050610116565b6040518082815260200191505060405180910390f35b610114600480360360208110156100fe57600080fd5b810190808035906020019092919050505061012e565b005b60006020528060005260406000206000915090505481565b8060008073cfba9d7f3d4f9841ce9796117945559f0b4b586873ffffffffffffffffffffffffffffffffffffffff1673ffffffffffffffffffffffffffffffffffffffff168152602001908152602001600020819055505056fea165627a7a72305820a627b5242ce10b7e77fb0dac39d669a2b3b9d4e376fc0c9a77cc5129329f38fc0029",
  "source": "pragma solidity ^0.5.8;\n\ncontract Tester {\n  mapping (address => uint256) public e;\n  address constant addr = 0xCfbA9D7F3D4F9841ce9796117945559f0b4b5868;\n\n  constructor() public {\n    e[addr] = 10000;\n  }\n\n  function() external {\n    e[addr] = 0;\n  }\n\n  function setNewValue(uint256 val) public {\n    e[addr] = val;\n  }\n\n}\n",
  "sourcePath": "/home/mattczernik/Workspace/ganache-testing/contracts/TestToken.sol",
  "compiler": {
    "name": "solc",
    "version": "0.5.8+commit.23d335f2.Emscripten.clang"
  },
  "schemaVersion": "3.0.11",
  "updatedAt": "2019-08-30T23:37:14.159Z",
  "devdoc": {
    "methods": {}
  },
  "userdoc": {
    "methods": {}
  }
}