{
  "contractName": "TestContract",
  "abi": [
    {
      "constant": true,
      "inputs": [
        {
          "name": "",
          "type": "address"
        }
      ],
      "name": "e",
      "outputs": [
        {
          "name": "",
          "type": "uint256"
        }
      ],
      "payable": false,
      "stateMutability": "view",
      "type": "function"
    },
    {
      "inputs": [],
      "payable": false,
      "stateMutability": "nonpayable",
      "type": "constructor"
    },
    {
      "payable": false,
      "stateMutability": "nonpayable",
      "type": "fallback"
    },
    {
      "constant": true,
      "inputs": [
        {
          "name": "addr",
          "type": "address"
        }
      ],
      "name": "getBal",
      "outputs": [
        {
          "name": "",
          "type": "uint256"
        }
      ],
      "payable": false,
      "stateMutability": "view",
      "type": "function"
    },
    {
      "constant": true,
      "inputs": [],
      "name": "getAddr",
      "outputs": [
        {
          "name": "",
          "type": "bytes32"
        }
      ],
      "payable": false,
      "stateMutability": "view",
      "type": "function"
    },
    {
      "constant": true,
      "inputs": [],
      "name": "getNumInBytes",
      "outputs": [
        {
          "name": "",
          "type": "bytes32"
        }
      ],
      "payable": false,
      "stateMutability": "view",
      "type": "function"
    },
    {
      "constant": true,
      "inputs": [],
      "name": "getHash",
      "outputs": [
        {
          "name": "",
          "type": "bytes32"
        }
      ],
      "payable": false,
      "stateMutability": "view",
      "type": "function"
    },
    {
      "constant": false,
      "inputs": [
        {
          "name": "val",
          "type": "uint256"
        }
      ],
      "name": "setNewValue",
      "outputs": [],
      "payable": false,
      "stateMutability": "nonpayable",
      "type": "function"
    }
  ],
  "bytecode": "0x6080604052600160005573cfba9d7f3d4f9841ce9796117945559f0b4b5868600260006101000a81548173ffffffffffffffffffffffffffffffffffffffff021916908373ffffffffffffffffffffffffffffffffffffffff16021790555034801561006a57600080fd5b5061271060016000600260009054906101000a900473ffffffffffffffffffffffffffffffffffffffff1673ffffffffffffffffffffffffffffffffffffffff1673ffffffffffffffffffffffffffffffffffffffff168152602001908152602001600020819055506103ca806100e26000396000f3fe608060405234801561001057600080fd5b50600436106100625760003560e01c806323919512146100cb5780632fa7808514610123578063951c40771461017b578063971923d6146101a9578063a74c2bb6146101c7578063d13319c4146101e5575b600060016000600260009054906101000a900473ffffffffffffffffffffffffffffffffffffffff1673ffffffffffffffffffffffffffffffffffffffff1673ffffffffffffffffffffffffffffffffffffffff16815260200190815260200160002081905550005b61010d600480360360208110156100e157600080fd5b81019080803573ffffffffffffffffffffffffffffffffffffffff169060200190929190505050610203565b6040518082815260200191505060405180910390f35b6101656004803603602081101561013957600080fd5b81019080803573ffffffffffffffffffffffffffffffffffffffff16906020019092919050505061021b565b6040518082815260200191505060405180910390f35b6101a76004803603602081101561019157600080fd5b8101908080359060200190929190505050610264565b005b6101b16102cd565b6040518082815260200191505060405180910390f35b6101cf6102d9565b6040518082815260200191505060405180910390f35b6101ed610315565b6040518082815260200191505060405180910390f35b60016020528060005260406000206000915090505481565b6000600160008373ffffffffffffffffffffffffffffffffffffffff1673ffffffffffffffffffffffffffffffffffffffff168152602001908152602001600020549050919050565b8060016000600260009054906101000a900473ffffffffffffffffffffffffffffffffffffffff1673ffffffffffffffffffffffffffffffffffffffff1673ffffffffffffffffffffffffffffffffffffffff1681526020019081526020016000208190555050565b6000805460001b905090565b6000600260009054906101000a900473ffffffffffffffffffffffffffffffffffffffff1660601b6bffffffffffffffffffffffff1916905090565b6000600260009054906101000a900473ffffffffffffffffffffffffffffffffffffffff16600054604051602001808373ffffffffffffffffffffffffffffffffffffffff1673ffffffffffffffffffffffffffffffffffffffff1660601b8152601401828152602001925050506040516020818303038152906040528051906020012090509056fea165627a7a723058209083153adb63267a45a649cdab254d8fa4a6eb5645ddbafe2d2c3ce5a109883b0029",
  "source": "pragma solidity ^0.5.8;\n\ncontract TestContract {\n  uint t = 1;\n  mapping (address => uint256) public e;\n  address addr = 0xCfbA9D7F3D4F9841ce9796117945559f0b4b5868;\n\n  constructor() public {\n    e[addr] = 10000;\n  }\n\n  function() external {\n    e[addr] = 0;\n  }\n\n  function getBal(address addr) public view returns (uint) {\n    return e[addr];\n  }\n\n  function getAddr() public view returns (bytes32) {\n    return bytes32(bytes20(addr));\n  }\n\n  function getNumInBytes() public view returns (bytes32) {\n    return bytes32(t);\n  }\n\n  function getHash() public view returns (bytes32) {\n    return keccak256(abi.encodePacked(addr, t));\n  }\n\n  function setNewValue(uint256 val) public {\n    e[addr] = val;\n  }\n\n}\n",
  "sourcePath": "/home/mattczernik/Workspace/ganache-testing/contracts/TestContract.sol",
  "compiler": {
    "name": "solc",
    "version": "0.5.8+commit.23d335f2.Emscripten.clang"
  },
  "schemaVersion": "3.0.11",
  "updatedAt": "2019-09-02T17:10:14.744Z",
  "devdoc": {
    "methods": {}
  },
  "userdoc": {
    "methods": {}
  }
}